:020000040800F2
:10000000100C0020D5010008651800088F170008A3
:1000100061180008DD050008C11E0008000000008E
:10002000000000000000000000000000211C00088B
:10003000E105000800000000951B0008231C0008D3
:10004000EF010008EF010008EF010008EF010008D0
:10005000EF010008EF010008EF010008EF010008C0
:10006000EF010008EF010008EF010008EF010008B0
:10007000EF010008EF010008EF010008EF010008A0
:10008000EF010008EF010008EF010008EF01000890
:10009000EF010008EF010008EF010008E305000888
:1000A000EF010008EF010008EF010008EF01000870
:1000B000E91C0008011D0008251D0008EF010008CB
:1000C000EF010008EF010008EF010008EF01000850
:1000D000EF010008EF010008A11E0008B11E000892
:1000E000EF010008EF010008EF010008EF01000830
:1000F000EF010008EF010008EF010008EF01000820
:10010000EF010008EF010008EF010008EF0100080F
:10011000EF010008EF010008EF010008EF010008FF
:10012000EF010008EF010008EF010008EF010008EF
:1001300000F002F800F03FF80AA090E8000C8244BA
:100140008344AAF10107DA4501D100F034F8AFF297
:10015000090EBAE80F0013F0010F18BFFB1A43F0A5
:1001600001031847F42D0000142E0000103A24BF9C
:1001700078C878C1FAD8520724BF30C830C144BF0C
:1001800004680C607047000000230024002500264E
:10019000103A28BF78C1FBD8520728BF30C148BFEA
:1001A0000B607047642900F05780002070471FB52E
:1001B0001FBD10B510BD00F0E3F91146FFF7F7FFC2
:1001C00001F0F6FE00F001FA03B4FFF7F2FF03BC02
:1001D00001F09BFE0948804709480047FEE7FEE71B
:1001E000FEE7FEE7FEE7FEE7FEE7FEE7FEE7FEE7E7
:1001F00004480549054A064B70470000911C000859
:100200003101000810060020100C0020100800200A
:1002100010080020704700000FB4044910B503AA6D
:10022000029800F093F910BC5DF814FB0400002064
:100230000FB41CB5074B06AA7B446946009005988D
:1002400000F06BF90020694600F07AF91CBC5DF8FB
:1002500014FB0000050300002DE9F04106460024D0
:1002600010687529314616A510D0AFF3008000281C
:1002700002DA404213A507E031688A0701D512A5CA
:1002800002E0490704D511A5012401E0AFF3008085
:1002900000210A2206F1240709E0B0FBF2FCB0FBC2
:1002A000F2F302FB1C00303078541846491C002839
:1002B000F3D123462A463046BDE8F04100F0CFB8DE
:1002C000000000002D0000002B00000020000000B6
:1002D0002DE9F05F894604464FF0000ADFF824B1AB
:1002E000FB44C0F820A02046E168884700287DD064
:1002F000252806D0D4E901219047206A401C2062BD
:10030000F1E700255F462046E16888472028064639
:1003100007DB312E05D2B81910F8200C08B10543BF
:10032000F1E7A80701D525F00405C4F81CA00027B3
:10033000C4F818A02A2E09D0304601F0DFFD38B3EA
:1003400004EB8708303EC8F8186019E059F8041B20
:10035000204604EB87029161E1688847012F064639
:1003600018D1E069002820DA25F020051DE0D8F832
:10037000180000EB800006EB40003038C8F8180089
:100380002046E1688847064601F0B8FD0028EED116
:10039000012F0AD02E2E08D12046E16888477F1C05
:1003A0000646022F45F02005C4DBA069002803DAC9
:1003B000404245F00105A061E80701D025F0100595
:1003C000A6B1A6F14100192802D8203645F40065EF
:1003D0004A463146204625604D46FFF7E3FE60B1B0
:1003E000012807D0ED1D25F0070000E007E000F12F
:1003F000080978E705F1040975E730467AE7206ACD
:10040000BDE8F09F632C00004FF0000200B51346DA
:1004100094469646203922BFA0E80C50A0E80C5024
:10042000B1F12001BFF4F7AF090728BFA0E80C50D5
:1004300048BF0CC05DF804EB890028BF40F8042BCE
:1004400008BF704748BF20F8022B11F0804F18BF3B
:1004500000F8012B704770477047704770472DE9CF
:10046000F0470D4699469246044600F1240801687B
:10047000880604D5E06921F01001216000E0012028
:10048000A84201DD471B00E00027A1697A1902EBB1
:100490000900081AA0612078C00602D42046AFF3F4
:1004A0000080002608E0D4E901211AF806009047F0
:1004B000206A401C761C20624E45F4DB2078C00682
:1004C0000AD52046AFF3008006E0D4E901213020B0
:1004D0009047206A401C2062381EA7F10107F4DC17
:1004E00007E0D4E9012118F805009047206A401C74
:1004F0002062281EA5F10105F3DC2046AFF3008041
:100500002078000602D50220BDE8F0870120FBE735
:1005100001694A1C02610878704700B58FB0CDE9C7
:1005200001310021059105497944CDE903101146B7
:100530006846FFF7CDFE0FB000BD0000E5FFFFFFEE
:100540000A6802F8010B0A6070470000074B70B59B
:100550000D467B44FFF7E1FF0446284600F008F80B
:1005600010B14FF0FF3070BD204670BD2F1A000053
:10057000007B00F08000704700487047AC05002009
:100580007546FFF7F9FFAE4605006946534620F071
:100590000700854618B020B5FFF72AFEBDE82040C9
:1005A0004FF000064FF000074FF000084FF0000B2F
:1005B00021F00701AC46ACE8C009ACE8C009ACE8E2
:1005C000C009ACE8C0098D46704710B50446AFF3CA
:1005D00000802046BDE81040FFF7F6BD00BFFEE7F3
:1005E000704710B5202000F0DBF810BD70B5044650
:1005F000002594F82100022803D00420A0630125DF
:10060000C1E02068006820F00E00216808602068C2
:10061000006820F00100216808605C492068884279
:1006200052D95A4978392068884201D1012047E0DF
:10063000564964392068884201D1102040E053496E
:1006400050392068884201D1801539E04F493C3942
:100650002068884201D1801432E04C492839206852
:10066000884202D14FF480302AE04849143920688A
:10067000884202D14FF4801022E044492068884229
:1006800001D140041CE042492068884201D1012088
:1006900016E03F4914312068884201D110200FE054
:1006A0003B4928312068884201D1801508E038494B
:1006B0003C312068884201D1801401E04FF4803041
:1006C0003349091F086051E0304978392068884271
:1006D00001D1012047E02D4964392068884201D1C9
:1006E000102040E0294950392068884201D1801506
:1006F00039E026493C392068884201D1801432E033
:10070000224928392068884202D14FF480302AE0FB
:100710001E4914392068884202D14FF4801022E02B
:100720001A492068884201D140041CE01849206819
:10073000884201D1012016E0154914312068884211
:1007400001D110200FE0124928312068884201D1E0
:10075000801508E00E493C312068884201D18014A0
:1007600001E04FF48030094980394860012084F865
:10077000210000BF002084F8200000BF606B10B192
:100780002046616B8847284670BD0000800002400B
:100790000804024010B50446022001F013F810BD11
:1007A00010B5044604480068204020B102480460A7
:1007B0002046FFF7EFFF10BD140401402DE9F84774
:1007C000024600239C467BE14FF0010808FA03F43F
:1007D000D1F8008008EA0400A0427DD1DFF8F4A23D
:1007E000D1F80480A8EB0A09D0453AD014DCB8F15E
:1007F000030F50D009DCB8F1000F31D0B8F1010F70
:100800001CD0B8F1020F49D120E0B8F1110F18D077
:10081000B8F1120F42D11EE0B9F5881F25D006DCD1
:10082000B9F5803F20D0B9F5801F37D11AE0B9F56E
:10083000001F18D0B9F5041F30D117E0D1F80CC053
:100840002DE0D1F80C8008F1040C28E0D1F80C80E0
:1008500008F1080C23E0D1F80C8008F10C0C1EE024
:1008600000BF00BF00BF00BF00BF00BFD1F80880BD
:10087000B8F1000F02D14FF0040C0BE0D1F8088062
:10088000B8F1010F03D14FF0080C146102E04FF0F2
:10089000080C546103E04FF0000C00E000BF00BF03
:1008A000FF2801D8904601E002F104084646FF28DF
:1008B00002D84FEA830803E0A3F108084FEA88084A
:1008C0004746D6F800804FF00F0909FA07F928EAE1
:1008D00009080CFA07F900E07AE048EA0908C6F8C6
:1008E0000080D1F8048008F08058B8F1805F6FD1A3
:1008F00000BFDFF8E481D8F8188048F00108DFF87D
:10090000D891C9F81880C846D8F8188008F00108AE
:10091000CDF8008000BF00BF4FEAB9384FEA930915
:1009200058F829504FEA83784FEA18794FF00F08AA
:1009300008FA09F825EA0805DFF8A081424502D146
:100940004FF0000824E0DFF89881424502D14FF0D3
:1009500001081DE0DFF88C81424502D14FF002080A
:1009600016E0DFF88481424502D14FF003080FE022
:10097000DFF87881424502D14FF0040808E0DFF843
:100980007081424502D14FF0050801E04FF00608A2
:100990004FEA83794FEA197908FA09F848EA050518
:1009A000DFF850814FEA930948F82950D1F80480C4
:1009B00008F48038B8F5803F0BD1DFF83C81D8F8D7
:1009C000008048EA0008DFF83091C9F800800AE0AA
:1009D00075E0DFF82481D8F8008028EA0008DFF805
:1009E0001891C9F80080D1F8048008F40038B8F5EF
:1009F000003F0ED1DFF8008108F10408D8F800802C
:100A000048EA0008DFF8F09009F10409C9F800800D
:100A10000DE0DFF8E48008F10408D8F8008028EA47
:100A20000008DFF8D49009F10409C9F80080D1F872
:100A3000048008F48018B8F5801F0ED1DFF8B88064
:100A400008F10808D8F8008048EA0008DFF8A89004
:100A500009F10809C9F800800DE0DFF89C8008F171
:100A60000808D8F8008028EA0008DFF88C9009F11F
:100A70000809C9F80080D1F8048008F40018B8F516
:100A8000001F0ED1DFF8708008F10C08D8F8008044
:100A900048EA0008DFF8609009F10C09C9F8008005
:100AA0000DE0DFF8548008F10C08D8F8008028EA3F
:100AB0000008DFF8449009F10C09C9F800805B1CBC
:100AC000D1F8008028FA03F8B8F1000F7FF47CAE6B
:100AD000BDE8F88700001110001002400008014036
:100AE000000C0140001001400014014000180140BA
:100AF000001C0140080001400004014002469368C8
:100B00000B400BB1012000E0002070470AB10161E9
:100B100001E00B0403617047014800687047000062
:100B20001800002003480068034909780844014977
:100B300008607047180000202000002010B5084809
:100B4000006840F0100006490860052000F070F8C9
:100B50000F2000F007F800F02BF8002010BD000077
:100B60000020024070B504460E4800784FF47A71B8
:100B7000B1FBF0F00C490968B1FBF0F5284600F034
:100B8000C1FB08B1012070BD102C07D20022214604
:100B9000501E00F00EF80548046001E00120F2E765
:100BA0000020F0E720000020140000201C0000209E
:100BB00070472DE9F05F80460D461646002701F08C
:100BC00081F9074639462A46334601F00700C0F14D
:100BD000070ABAF1040F02D94FF0040A01E0C0F18C
:100BE000070AD14600F1040ABAF1070F02D24FF00A
:100BF000000A01E0A0F1030AD4464FF0010A0AFA04
:100C000009FAAAF1010A0AEA020A0AFA0CFA4FF0F2
:100C1000010B0BFA0CFBABF1010B0BEA030B4AEADD
:100C20000B042146404601F055F9BDE8F09F000055
:100C300000BF00F00702064B19684FF6FF0319408A
:100C4000044B0B4343EA0221014B196000BF70477C
:100C50000CED00E00000FA0570B504460D460CB935
:100C6000012070BD5A48006800F00700A8420ED26B
:100C70005748006820F00700284355490860084697
:100C8000006800F00700A84201D00120E9E72078C1
:100C900000F0020002281DD1207800F00400042892
:100CA00005D14C48406840F4E0604A4948602078EB
:100CB00000F00800082805D14648406840F460501C
:100CC000444948604348406820F0F000A168084368
:100CD00040494860207800F0010078B3606801283E
:100CE00006D13C48006800F4003090B90120B8E714
:100CF0006068022806D13748006800F0007040B9EB
:100D00000120AEE73348006800F0020008B9012076
:100D1000A7E73048406820F00300616808432D4988
:100D20004860FFF7F9FE064609E0FFF7F5FE801B75
:100D300041F28831884202D9032092E707E0254832
:100D4000406800F00C006168B0EB810FEDD12048E5
:100D5000006800F00700A8420ED91D48006820F086
:100D6000070028431A4908600846006800F0070099
:100D7000A84201D0012074E7207800F00400042884
:100D800007D11448406820F4E060E1680843114945
:100D90004860207800F00800082808D10D48406815
:100DA00020F46050216940EAC1000A49486000F01F
:100DB00019F808494968C1F30311074A515CC84052
:100DC0000649086006480068FFF7CCFE002048E7A7
:100DD00000200240001002402F2F000814000020C5
:100DE0001C000020F0B585B00FF26C0C9CE8E01000
:100DF00001A8A0E8E0101CA52D68009500210022A4
:100E0000002300240020194D696801F00C05F5B19C
:100E1000042D02D0082D19D101E0154819E001ADCB
:100E2000C1F38346AC5D01F4803555B10F4D6D685B
:100E3000C5F340451DF805200D4D6543B5FBF2F3A4
:100E400002E00C4D04FB05F3184602E000BF084821
:100E500000BF00BF05B0F0BD020304050607080986
:100E60000A0B0C0D0E0F10100102000000100240C2
:100E700000127A0000093D00F8B504460CB90120C3
:100E8000F8BD207800F00100002878D0F8484068CC
:100E900000F00C0004280CD0F548406800F00C006D
:100EA000082811D1F248406800F48030B0F5803F46
:100EB0000AD1EF48006800F4003000285FD0606875
:100EC00000285CD10120DBE700BF6068B0F5803FFF
:100ED00006D1E748006840F48030E549086028E022
:100EE000606858B9E248006820F48030E049086042
:100EF0000846006820F4802008601AE06068B0F5B9
:100F0000A02F0BD1DA48006840F48020D84908604F
:100F10000846006840F4803008600AE0D448006861
:100F200020F48030D24908600846006820F4802010
:100F3000086000BF606888B1FFF7EEFD054606E077
:100F4000FFF7EAFD401B642801D9032098E7C84851
:100F5000006800F400300028F2D010E0FFF7DCFD5C
:100F6000054606E0FFF7D8FD401B642801D90320A1
:100F700086E7BF48006800F400300028F2D12078EE
:100F800000F00200022857D1B948406800F00C0078
:100F900050B1B748406800F00C00082818D1B44898
:100FA000406800F4803098B9B148006800F0020051
:100FB00020B12069012801D0012061E7AC48006818
:100FC00020F0F800616940EAC100A949086033E0F7
:100FD0002069E8B10120A7490860FFF79DFD05469B
:100FE00006E0FFF799FD401B022801D9032047E7DF
:100FF0009F48006800F002000028F2D09C4800687A
:1010000020F0F800616940EAC1009949086013E0E6
:10101000002098490860FFF77FFD054606E0FFF7CE
:101020007BFD401B022801D9032029E79048006876
:1010300000F002000028F2D1207800F00800082813
:101040002DD1A069B8B101208B490860FFF764FD7C
:10105000054606E0FFF760FD401B022801D903208A
:101060000EE78348406A00F002000028F2D0012019
:1010700000F092FD13E000207F490860FFF74CFD6F
:10108000054606E0FFF748FD401B022801D9032072
:10109000F6E67748406A00F002000028F2D1207896
:1010A00000F00400042873D100277148C06900F0E3
:1010B000805070B900BF6E48C06940F080506C49E4
:1010C000C8610846C06900F08050009000BF00BFB2
:1010D00001276A48006800F48070B0B9674800686A
:1010E00040F4807065490860FFF716FD054606E08C
:1010F000FFF712FD401B642801D90320C0E65F48BA
:10110000006800F480700028F2D000BFE068012879
:1011100006D15748006A40F001005549086227E0AF
:10112000E06858B95248006A20F00100504908624E
:101130000846006A20F00400086219E0E06805280B
:101140000BD14B48006A40F0040049490862084648
:10115000006A40F0010008620AE04548006A20F099
:101160000100434908620846006A20F00400086252
:1011700000BFE068A0B1FFF7CFFC054609E0FFF72C
:10118000CBFC401B41F28831884202D9032077E62C
:1011900022E03748006A00F002000028EFD012E099
:1011A000FFF7BAFC054608E0FFF7B6FC401B41F22A
:1011B0008831884201D9032062E62D48006A00F098
:1011C00002000028F0D1012F05D12948C06920F084
:1011D00080502749C86100BFE069C8B3244840680F
:1011E00000F00C00082860D0E069022848D10020F7
:1011F00020490866FFF790FC054606E0FFF78CFCE7
:10120000401B022801D903203AE61948006800F083
:1012100000700028F2D1206AB0F5803F07D1144851
:10122000406820F40030A168084311494860D4E9BF
:10123000080108430E49496821F4741108430C4918
:10124000486001200B490866FFF766FC054607E089
:101250003DE0FFF761FC401B022801D903200FE6A7
:101260000348006800F000700028F2D02FE0000072
:1012700000100240000042428004424200700040E0
:10128000002014490866FFF747FC054606E0FFF713
:1012900043FC401B022801D90320F1E50E480068F9
:1012A00000F000700028F2D111E0E069012800D1BF
:1012B000E6E50948466806F48031206A814204D197
:1012C00006F47011606A814201D00120D8E5002047
:1012D000D6E500000000424200100240042808D178
:1012E0004FF0E021096941F004014FF0E022116163
:1012F00007E04FF0E021096921F004014FF0E022FE
:101300001161704770B504462546681EB0F1807FB4
:1013100001D301200FE0681E4FF0E02148610F214A
:101320004FF0FF3000F0D6FD00204FF0E021886143
:1013300007200861002070BD70477047704710B5E6
:10134000044620680069C0F34000D8B12068C06836
:10135000C0F34000B0B16FF00200216808610120C5
:1013600020772068806900F0030018B12046FFF75D
:10137000E5FF05E0204600F0ADF8204600F0ABF8B0
:101380000020207720680069C0F38000D8B1206871
:10139000C068C0F38000B0B16FF00400216808613C
:1013A000022020772068806900F4407018B1204640
:1013B000FFF7C4FF05E0204600F08CF8204600F05F
:1013C0008AF80020207720680069C0F3C000D8B1F7
:1013D0002068C068C0F3C000B0B16FF00800216899
:1013E0000861042020772068C06900F0030018B16C
:1013F0002046FFF7A3FF05E0204600F06BF82046EB
:1014000000F069F80020207720680069C0F3001020
:10141000D8B12068C068C0F30010B0B16FF0100000
:1014200021680861082020772068C06900F44070B6
:1014300018B12046FFF782FF05E0204600F04AF889
:10144000204600F048F8002020772068006900F06E
:10145000010058B12068C06800F0010030B16FF0A1
:10146000010021680861204600F036F82068006914
:10147000C0F3C01058B12068C068C0F3C01030B1CC
:101480006FF08000216808612046FFF755FF206853
:101490000069C0F3801058B12068C068C0F38010A4
:1014A00030B16FF0400021680861204600F020F85C
:1014B00020680069C0F3401058B12068C068C0F3CC
:1014C000401030B16FF02000216808612046FFF71E
:1014D00034FF10BD7047704710B50446034884427E
:1014E00002D1022000F06EF910BD00006C05002052
:1014F000704770472DE9F04704462068056820686A
:10150000C668206847694FF00008C14605F00F081B
:10151000B8F1000F0AD105F0200038B106F0200024
:1015200020B1204600F034FCBDE8F087B8F1000F90
:101530006DD007F0010018B906F49070002866D04D
:1015400005F0010030B106F4807018B1E06B40F096
:101550000100E06305F0040030B107F0010018B1AC
:10156000E06B40F00200E06305F0020030B107F0EC
:10157000010018B1E06B40F00400E06305F00800E2
:1015800030B107F0010018B1E06B40F00800E063F3
:10159000E06B68B305F0200028B106F0200010B120
:1015A000204600F0F5FB20684069C0F38019E06B2D
:1015B00000F0080010B9B9F1000F22D0204600F069
:1015C000C7FB2068406900F04000B0B12068406966
:1015D00020F0400021684861606B50B11748616B92
:1015E0004863606BFFF702F810B1606B416B88478E
:1015F0000CE02046FFF77DFF08E02046FFF779FF6B
:1016000004E02046FFF775FF0020E0638CE705F05B
:10161000800030B106F0800018B1204600F00BFCCD
:1016200082E705F0400030B106F0400018B12046D6
:1016300000F09EFB78E700BF76E700003D1D000844
:1016400010B5034693F83A0020282FD101B10AB90A
:10165000012010BD00BF93F83800012801D10220FD
:10166000F7E7012083F8380000BF99629A85DA8590
:101670000020D863222083F83A0000BF002083F8BE
:10168000380000BF1868C06840F480701C68E060D3
:101690001868406940F001001C6860611868C06803
:1016A00040F020001C68E0600020D2E70220D0E774
:1016B00010B5044627492068884222D101222649D4
:1016C0002648FFF7BDFFC8B9234800780A280AD189
:1016D00000202349234A1288885422490880012087
:1016E000214908700DE01C4801781E4802880088D6
:1016F000401C1C4B18801A48815402E01BA0FEF7C6
:101700008BFD1E492068884222D1012212491C48C3
:10171000FFF796FFC8B9104800780A280AD10020C0
:101720000F49184A12888854164908800120164922
:1017300008700DE008480178124802880088401CB3
:10174000104B18800648815402E008A0FEF764FDA3
:1017500010BD0000004400400A000020EC00002002
:101760006C0100200C0000201000002072656365F1
:10177000697665206661696C640A00000048004073
:101780002C0100200E00002011000020704700BF37
:10179000FEE7000001464906084A926942F001024C
:1017A000064B9A61064A526822F0E062044B5A6086
:1017B0001A4652680A435A607047000000100240FF
:1017C0000000014070B5044634B900224FF40041D6
:1017D0000E48FFF79BF918E0012C05D10122D10337
:1017E0000A48FFF793F910E0022C0ED1A103074835
:1017F000FFF784F908B9012000E0002005462A46D9
:101800004FF400410148FFF781F970BD000C014021
:1018100000B585B000BF1048806940F008000E494F
:1018200088610846806900F00800009000BF00BF92
:101830004FF4004001900120029003900320049097
:1018400001A90648FEF7BAFF00224FF40041034801
:10185000FFF75CF905B000BD00100240000C01402C
:1018600000BFFEE7704770B5002415E004F1B00139
:10187000C8B200F01BF9012000F018F9102000F0A8
:1018800015F9002504E0002000F04AF9681CC5B2F3
:10189000842DF8DB601CC4B2082CE7DB70BD0000AF
:1018A00000B585B000BF4E48806940F010004C493B
:1018B00088610846806900F01000009000BF00BFFA
:1018C00000BF0846806940F00400886108468069CE
:1018D00000F00400009000BF00BF4FF46040019092
:1018E000012002900320049001A93E48FEF766FF04
:1018F0000120019002900320049001A93A48FEF7CC
:101900005DFF0122D1033748FFF700F900224FF4B1
:1019100000513448FFF7FAF8322000F003FB0122AF
:1019200051033048FFF7F2F8AE2000F0BFF8002076
:1019300000F0BCF8102000F0B9F8402000F0B6F834
:10194000812000F0B3F8CF2000F0B0F8A12000F023
:10195000ADF8C82000F0AAF8A62000F0A7F8A8204B
:1019600000F0A4F83F2000F0A1F8D32000F09EF88A
:10197000002000F09BF8D52000F098F8802000F0BF
:1019800095F8D92000F092F8F12000F08FF8DA20D5
:1019900000F08CF8122000F089F8DB2000F086F8C7
:1019A000402000F083F8202000F080F8022000F0B2
:1019B0007DF88D2000F07AF8142000F077F8A4204C
:1019C00000F074F8A62000F071F8AF2000F06EF877
:1019D000FFF749FF0021084600F03AF805B000BDC6
:1019E0000010024000100140000801402DE9F047BE
:1019F0000446884615464FF000090026002720E0DF
:101A0000E85D203800F0FF097E2C04DD002408F199
:101A1000010000F0FF084146204600F019F80026BA
:101A200009E009EB4901094A02EB4101885D00F038
:101A300077F8701CC6B2062EF3DBA01DC4B2781C6A
:101A4000C7B2E85D0028DBD1BDE8F087AC20000814
:101A500070B504460D4605F1B001C8B200F026F895
:101A6000102141EA141000F021F804F00F0000F0FA
:101A70001DF870BD70B50026002411E0214610202D
:101A8000FFF7E6FF0E2507E03146761C064A505C5C
:101A900000F046F8681CC5B2762DF5DB601CC4B2B8
:101AA000082CEBDB70BD0000EF2B000870B504467E
:101AB0000825002201211848FFF728F800222903F1
:101AC0001648FFF723F8012000F06AFA1EE004F040
:101AD000800028B1012291031048FFF717F805E0B4
:101AE00000224FF480410D48FFF710F80122D10386
:101AF0000A48FFF70BF8012000F052FA00224FF4D9
:101B000000410648FFF702F86006040E281EA5F102
:101B10000101CDB2DBD170BD0008014000100140D1
:101B200070B504460825012211461848FEF7EEFF5D
:101B3000002229031648FEF7E9FF012000F030FAE1
:101B40001EE004F0800028B1012291031048FEF746
:101B5000DDFF05E000224FF480410D48FEF7D6FF7F
:101B60000122D1030A48FEF7D1FF012000F018FA44
:101B700000224FF400410648FEF7C8FF6006040E3D
:101B8000281EA5F10101CDB2DBD170BD00080140D6
:101B9000001001407047000008B508490968C908ED
:101BA0004FF47A72B1FBF2F14143009100BF00BFE4
:101BB00000994A1E00920029F9D108BD14000020A6
:101BC00010B5044634B1012C0CD0022C12D0032CD9
:101BD00020D117E010211148FEF790FF08B901202D
:101BE00010BD17E080210D48FEF788FF08B90120DD
:101BF000F6E70FE040210948FEF780FF08B9012011
:101C0000EEE707E020210548FEF778FF08B901203C
:101C1000E6E700BF00BF0020E2E700000008014047
:101C2000704710B5FEF77EFF10BD00B58FB02821BC
:101C300005A8FEF7E9FB14216846FEF7E5FB012045
:101C400005900004069000200790012009900220D2
:101C50000C90C1030D914FF4E0110E9105A8FFF710
:101C60000BF908B100BFFEE70F20009002200190A1
:101C7000002002904FF48060039000200490022125
:101C80006846FEF7E9FF08B100BFFEE70FB000BDF0
:101C90001148006840F001000F490860084640689C
:101CA0000E4908400C494860084600680C49084045
:101CB000094908600846006820F48020086008464A
:101CC000406820F4FE0048604FF41F008860C8039D
:101CD0000449086070470000001002400000FFF84F
:101CE000FFFFF6FE08ED00E04FF0804000694FF086
:101CF0008040006920F001004FF08041086170478A
:101D000010B50648FFF71BFB05480068044800684B
:101D100020F001000249086010BD00006C050020A1
:101D200010040040044800680348006820F00100E7
:101D300001490860704700001008004070B5054672
:101D40006C6A0020E085E0842046FFF7D2FB70BD7E
:101D50000168C96821F490710268D160016849691D
:101D600021F0010102685161202180F83A1070478A
:101D700010B504462068C06820F040002168C860A3
:101D8000202084F839002046FFF700FD002010BD18
:101D900070B5044694F83A0022284AD1A068B0F5FC
:101DA000805F13D1A56A206940B920684068C0F3FC
:101DB00008002880A06A801CA06219E020684068A2
:101DC000C0B22880A06A401CA06211E0206938B926
:101DD00020684068C1B2A26A501CA062117007E07E
:101DE0002068406800F07F01A26A501CA062117058
:101DF000E08D401E80B2E085C8B92068C06820F040
:101E000020002168C8602068C06820F480702168C4
:101E1000C8602068406920F00100216848612020E6
:101E200084F83A002046FFF743FC002070BD0020F4
:101E3000FCE70220FAE7014691F8390021282CD16D
:101E40008868B0F5805F0FD10A6A1088C0F3080077
:101E50000B685860086918B9086A801C086209E0B4
:101E6000086A401C086205E00B6A581C0862187872
:101E70000B685860C88C401E80B2C88458B9086886
:101E8000C06820F080000B68D8600868C06840F027
:101E900040000B68D860002070470220FCE700007B
:101EA00010B50248FFF726FB10BD0000EC00002033
:101EB00010B50248FFF71EFB10BD00002C010020EA
:101EC00000BFFEE702480068C0F302207047000030
:101ED0000CED00E010B5002804DB0A07130E054ADC
:101EE000135406E00A07140E034A00F00F031B1FE9
:101EF000D45410BD00E400E018ED00E030380A28AA
:101F000001D2012070470020704700BF70470000D9
:101F100010B504460420FFF7E1F90148046010BD44
:101F20000000002030B50446002504E04FF47A702C
:101F300000F004F86D1CA542F8D330BD70B503461F
:101F400000224FF0E02675690D4E366803FB06F45B
:101F50004FF0E026B16910E04FF0E026B06988420A
:101F60000BD0884202D20E1A324402E02E1A0E44DE
:101F700032440146A24200D300E0EDE700BF70BD4D
:101F80000000002000BF054A126802F04002002A4B
:101F9000F9D0C2B2014B1B1D1A60704700440040CB
:101FA00000E000BF011EA0F10100FAD1704700005F
:101FB00088B0FEF7C3FDFFF738FE4820FFF7A8FF03
:101FC0000120FFF7E7FBFFF723FCFFF769FCFFF7B2
:101FD00051FD00F03BF84FF4FA70FFF7A3FFFFF755
:101FE00042FC2CE00020FFF7EBFD8DF81C000120E7
:101FF000FFF7E6FD8DF81D000220FFF7E1FD8DF8EB
:102000001E000320FFF7DCFD8DF81F009DF81F0068
:102010009DF81E10CDE900109DF81D309DF81C2084
:1020200007A102A8FEF704F902AA02210020FFF787
:10203000DDFC0220FFF7C6FBC820FFF773FFD1E7E6
:1020400025642025642025642025640000B585B022
:1020500000BF1448806940F00400124988610846B6
:10206000806900F00400009000BF00BF00BF084678
:10207000806940F0080088610846806900F0080027
:10208000009000BF00BFF0200190002002900220CD
:1020900003900320049001A90348FEF78FFB05B0CD
:1020A00000BD0000001002400008014000000000D8
:1020B00000000000002F00000000070007000014CF
:1020C0007F147F1400242A7F2A12006264081323DD
:1020D00000364955225000000503000000001C2274
:1020E0004100000041221C000014083E08140008B2
:1020F000083E0808000000A0600000080808080862
:10210000000060600000002010080402003E5149F9
:10211000453E0000427F4000004261514946002197
:1021200041454B31001814127F10002745454539B1
:10213000003C4A494930000171090503003649490C
:10214000493600064949291E0000363600000000C5
:102150005636000000081422410000141414141410
:1021600000004122140800020151090600324959B9
:10217000513E007C1211127C007F49494936003ED5
:1021800041414122007F4141221C007F4949494190
:10219000007F09090901003E4149497A007F08088A
:1021A000087F0000417F4100002040413F01007F47
:1021B00008142241007F40404040007F020C027F13
:1021C000007F0408107F003E4141413E007F090925
:1021D0000906003E4151215E007F0919294600464B
:1021E000494949310001017F0101003F4040403F22
:1021F000001F2040201F003F4038403F006314086C
:102200001463000708700807006151494543000046
:102210007F41410000552A552A55000041417F0069
:10222000000402010204004040404040000001025E
:102230000400002054545478007F48444438003847
:102240004444442000384444487F003854545418CF
:1022500000087E0901020018A4A4A47C007F0804E1
:1022600004780000447D4000004080847D00007FB1
:10227000102844000000417F4000007C04180478CE
:10228000007C0804047800384444443800FC2424CA
:1022900024180018242418FC007C080404080048B2
:1022A0005454542000043F444020003C4040207CD3
:1022B000001C2040201C003C4030403C00442810C2
:1022C0002844001CA0A0A07C004464544C44141476
:1022D00014141414B1B1BEA9B5E7D7D3BFC6BCBCA2
:1022E000D6B0D2B5D1A7D4BAC1FAC7F1D6C7C4DC2B
:1022F000BBFAC6F7C8CBD2A3BFD8C6F7BDD3CAD5E1
:10230000B7A2CBCDB0B4BCFCA3BA0020202020FEE5
:10231000000000FE8040201000101008047F000024
:10232000003F40404070000808E828282A2C282850
:1023300028E80808000020130A42427E02020A131D
:1023400020000000F090909090FE90909090F0000F
:1023500000000F040404043F4444444447700080D8
:102360008282828282C2A2928A86828000000000DB
:102370000040407F00000000000000404848F84452
:102380004420C41800FE0000000804037F02040279
:102390000202027F0101001010FE1000909090FEDA
:1023A000909010000042427F014040231408142303
:1023B00040400004FC2424FC0400FC040404FC0051
:1023C00000101F11097F0840330202021360001041
:1023D000608000FE000000FE00807000004040436E
:1023E000407F4040407F42414040007010929490B6
:1023F0009294909894121070000404040444447E53
:1024000006050404040400FC04649C001848484ABF
:102410004C484818007F0808074022120E02023E6E
:1024200042620020202020A07E20E0242820A0203E
:10243000004020100C2320103F4442414070000017
:10244000FC444444C24200FC0444B40C00101F107D
:1024500010080F08007F0010100F0028A6643C64CD
:10246000A420FC848484FC000001007E2A2A2A2AFD
:102470002A2A2A7E00000010989492909830003EFC
:102480004848447400007F0A0A4A7F00003F4444E1
:102490004271001090FE901000FC040404FC000047
:1024A0000002017F0041300F0000003F40700080BB
:1024B0009E9292929EC09E92B2D29E8000047C4ACE
:1024C0004A49780078494A4A7C040000000000002C
:1024D000807E80000000000000404020100C0300BF
:1024E000030C10204040004042CC00846C544CD47B
:1024F00044524E020040201F20425A52525F525214
:102500005A42001010FE100098482A0C08284898DB
:102510000042427F01004042427E424242400080EF
:102520009E9292929EC09E92B2D29E8000047C4A5D
:102530004A49780078494A4A7C04001010FE10503D
:102540004858EA4C685848400042427F01424A2EAF
:1025500013122A2642020000F80000FE004020DE8E
:102560001010F01000000702017F0040201708162D
:1025700021400000302C20A0702E20202024282074
:10258000001008444241272911292543404000807A
:1025900084980080929490F0909492800040201F44
:1025A00020405048464142445840001010FE100060
:1025B000B88888EA8C8888B80042427F010040448D
:1025C000271808142340002050CE4800C8B820A87F
:1025D000FEA8F8200002023F5228102F204A7F4A0E
:1025E0004A48000000008080000000000000000059
:1025F00000000000191900000000000000000000A9
:1026000000000000000000000000000000000000CA
:102610000000F8000000000000003330000000005F
:10262000100C06100C060000000000000000004026
:10263000C07840C0784000043F04043F0404000018
:102640007088FC08300000001820FF211E0000F0F8
:1026500008F000E018000000211C031E211E0000ED
:10266000F00888700000001E212324192721101073
:10267000160E000000000000000000000000000036
:102680000000E018040200000000071820400000CD
:10269000020418E00000000040201807000000407D
:1026A0004080F0804040000202010F010202000061
:1026B0000000F0000000000101011F010101000005
:1026C0000000000000000080B0700000000000006A
:1026D00000000000000000000101010101010100F3
:1026E000000000000000000030300000000000008A
:1026F000000000806018040060180601000000005F
:10270000E010080810E000000F102020100F00005B
:102710001010F8000000000020203F2020000000E2
:10272000700808088870000030282422213000003A
:10273000300888884830000018202020110E000042
:1027400000C02010F8000000070424243F240000EB
:10275000F80888880808000019212020110E0000C0
:10276000E0108888180000000F112020110E0000D2
:10277000380808C83808000000003F0000000000CA
:1027800070880808887000001C222121221C00008B
:10279000E010080810E0000000312222110F0000B4
:1027A0000000C0C000000000000030300000000049
:1027B00000008000000000000080600000000000B9
:1027C0000080402010080000010204081020004092
:1027D000404040404040000404040404040400005D
:1027E00008102040800000002010080402010000B2
:1027F0007048080808F0000000003036010000C0F2
:1028000030C828E810E0000718272423140B000024
:1028100000C038E0000000203C23020227382008D6
:10282000F8888888700000203F202020110E00C00A
:102830003008080808380007182020201008000871
:10284000F808080810E000203F202020100F0008A2
:10285000F88888E8081000203F202023201800086E
:10286000F88888E8081000203F200003000000C01E
:102870003008080838000007182020221E0200082F
:10288000F808000008F808203F210101213F20003E
:102890000808F8080800000020203F202000000061
:1028A000000808F8080800C08080807F0000000849
:1028B000F888C028180800203F200126382000088A
:1028C000F8080000000000203F20202020300008F1
:1028D000F8F800F8F80800203F003F003F2000080B
:1028E000F830C00008F808203F200007183F00E03B
:1028F0001008080810E0000F10202020100F00081A
:10290000F808080808F000203F210101010000E05C
:102910001008080810E0000F18242438504F000851
:10292000F8888888887000203F2000030C30200041
:10293000708808080838000038202121221C00185F
:102940000808F8080818000000203F2000000008D0
:10295000F808000008F808001F202020201F0008A9
:1029600078880000C83808000007380E010000F819
:102970000800F80008F800033C0700073C030008C3
:102980001868808068180820302C03032C30200839
:1029900038C800C83808000000203F2000000010A0
:1029A000080808C838080020382621202018000010
:1029B0000000FE020202000000007F4040400000D4
:1029C0000C30C000000000000000010638C000000C
:1029D000020202FE000000004040407F00000000B4
:1029E00000040202020400000000000000000000D9
:1029F00000000000000000808080808080808000D7
:102A000002020400000000000000000000000000BE
:102A1000008080808000000019242222223F2008AC
:102A2000F8008080000000003F112020110E0000FF
:102A300000008080800000000E1120202011000086
:102A40000000808088F800000E112020103F200038
:102A500000808080800000001F22222222130000BC
:102A60008080F0888888180020203F202000000007
:102A700000808080808000006B94949493600008B4
:102A8000F8008080800000203F210000203F2000CF
:102A9000809898000000000020203F2020000000C7
:102AA0000000809898000000C08080807F000008AF
:102AB000F8000080808000203F24022D302000009C
:102AC0000808F8000000000020203F2020000080BF
:102AD00080808080808000203F20003F20003F8059
:102AE00080008080800000203F210000203F2000E7
:102AF00000808080800000001F202020201F008098
:102B00008000808000000080FFA12020110E0000C6
:102B100000008080808000000E112020A0FF8080B7
:102B20008080008080800020203F21200001000064
:102B30000080808080800000332424242419000039
:102B40008080E0808000000000001F2020000080C6
:102B500080000000808000001F202020103F208087
:102B60008080000080808000010E30080601008017
:102B7000800080008080800F300C030C300F00003C
:102B8000808000808080000020312E0E3120008067
:102B90008080000080808080818E70180601000097
:102BA000808080808080000021302C222130000035
:102BB000000000807C020200000000003F40400056
:102BC000000000FF00000000000000FF0000000007
:102BD00002027C800000000040403F000000000036
:102BE00006010102020404000000000000000000D1
:102BF00000000000000000000000000000000000D5
:102C000000000000000000000000000000000000C4
:102C10000000000000000000003F3F3F3F3FC0C0F9
:102C2000C0C0C00000000000000000000000000064
:102C30000000000000000000000000000000000094
:102C40000000000000000000000000000000000084
:102C500000000000000000000080C0E0E0F0F0F0A4
:102C6000F00000000000F0F0F0F0F0F0F0F0F0F014
:102C7000F0F0F0F0F0F0F0F0F0F0F0F0F0F0F0F054
:102C8000F0F0F0F0F0F00707070707000000000081
:102C90000000000000E0F0F0F0000000000060E044
:102CA000E0C0000000000000C0E0E0E060606060A4
:102CB0007070303000E0E0E0E02060E0E0E040F004
:102CC000FEFFFFFFFFFFFFFFFF0000000000FFFF10
:102CD000FFFFFFFFFFFFFF1F1F1F1F1F1F1F1F1FE4
:102CE0001F1F1F1F1F1F1F1F1F1FFFFFFFFFFEFEB6
:102CF000FEFEFE0000000606060606C6FEFFFF1FDB
:102D0000070606FEFEFE06060686C66606000000EC
:102D1000FFFFFFFF3030F0F0F0F0303000FFFFFF3A
:102D2000FF4078FFFFFF80FFFFFFFFFFFFFFFFFF78
:102D3000FF0000000000FFFFFFFFFFFFFFFFFF009D
:102D40000000000000000000000000000000000083
:102D50000000FFFFFFFFFFFFFFFFFF00000000007C
:102D6000C0F0FEFF3F0780C0C06070FFFFFF0E078E
:102D70000301000000000000FFFFFFFF0000FFFF55
:102D8000FFFF000000FFFFFFFF0000FFFFFFFFFF4E
:102D9000FFFFFFFFFFFFFFFFFF0000000000FFFF3E
:102DA000FFFFFFFFFFFFFF0000000000000000002A
:102DB00000000000000000000080FFFFFFFFFFFF99
:102DC000FFFFFF000000040F0F07030000030101D5
:102DD000000000070F0F0E0C0C0C0C0C0C00000474
:102DE00007070707060203030303030300070F0F88
:102DF00007030303030100FFFFFFFFFFFFFFFFFFC8
:102E0000FF0000000000FFFFFFFFFFFFFFFFFFFFCD
:102E1000FFFFFFFFFFFFFFFFFFFFFFFFFFFFFFFFC2
:102E2000FFFFFFFFFFFFFFFFFFFFFF000000424229
:102E300042FEFEFFE743434100061E3E3C3000FFDA
:102E4000FFFFFF000000004040FFFFFFFF400008C1
:102E50000808080808FFFFFFFF0808080808087F9F
:102E6000FFFFFFFFFFFFFFFFFFC0C0C0C0C0C1C129
:102E7000C1C1C1C1C1C1C1C1C1C1C1C1C1C1C1C142
:102E8000C1C1C1C1010101010101FFFFFFFFFFFF3E
:102E9000FFFFFF000000FFFF00FFFFFF00FEFF003D
:102EA00000030F1F1E1800FFFFFFFF80800000803F
:102EB00080FFFFFFFF400000021A7AFAF2E38383EB
:102EC000C3F2FE7E3E0E0000070F1F3F3F7F7F7F55
:102ED0007F7F7F7F7F7F7F7F7F7F7F7F7F7F7F7F02
:102EE0007F7F7F7F7F7F7F7F7F7F7F7F00000000EE
:102EF00000007F7F7F3F3F1F0F07000000007F7FA4
:102F0000007F7F7F003F7F00000301010101017FFF
:102F10007F7F7F0000000040607F7F7F3F000000D8
:102F2000406070787D3F1F1F3F7F787060400000D9
:102F30000000000000000001020304060708090069
:102F4000000000010203040400000800000000006B
:102F50000000020001000010782F0008000000208F
:102F6000240000006C0100089C2F000824000020B1
:102F7000EC0B0000880100080000000000000000C9
:102F80000000000000000000000000000024F40029
:0C2F900000000000100000000100000024
:0400000508000131BD
:00000001FF
